{
  "contractName": "MyToken",
  "abi": [
    {
      "inputs": [],
      "stateMutability": "nonpayable",
      "type": "constructor"
    },
    {
      "inputs": [
        {
          "internalType": "address",
          "name": "sender",
          "type": "address"
        },
        {
          "internalType": "uint256",
          "name": "balance",
          "type": "uint256"
        },
        {
          "internalType": "uint256",
          "name": "needed",
          "type": "uint256"
        },
        {
          "internalType": "uint256",
          "name": "tokenId",
          "type": "uint256"
        }
      ],
      "name": "ERC1155InsufficientBalance",
      "type": "error"
    },
    {
      "inputs": [
        {
          "internalType": "address",
          "name": "approver",
          "type": "address"
        }
      ],
      "name": "ERC1155InvalidApprover",
      "type": "error"
    },
    {
      "inputs": [
        {
          "internalType": "uint256",
          "name": "idsLength",
          "type": "uint256"
        },
        {
          "internalType": "uint256",
          "name": "valuesLength",
          "type": "uint256"
        }
      ],
      "name": "ERC1155InvalidArrayLength",
      "type": "error"
    },
    {
      "inputs": [
        {
          "internalType": "address",
          "name": "operator",
          "type": "address"
        }
      ],
      "name": "ERC1155InvalidOperator",
      "type": "error"
    },
    {
      "inputs": [
        {
          "internalType": "address",
          "name": "receiver",
          "type": "address"
        }
      ],
      "name": "ERC1155InvalidReceiver",
      "type": "error"
    },
    {
      "inputs": [
        {
          "internalType": "address",
          "name": "sender",
          "type": "address"
        }
      ],
      "name": "ERC1155InvalidSender",
      "type": "error"
    },
    {
      "inputs": [
        {
          "internalType": "address",
          "name": "operator",
          "type": "address"
        },
        {
          "internalType": "address",
          "name": "owner",
          "type": "address"
        }
      ],
      "name": "ERC1155MissingApprovalForAll",
      "type": "error"
    },
    {
      "inputs": [
        {
          "internalType": "address",
          "name": "owner",
          "type": "address"
        }
      ],
      "name": "OwnableInvalidOwner",
      "type": "error"
    },
    {
      "inputs": [
        {
          "internalType": "address",
          "name": "account",
          "type": "address"
        }
      ],
      "name": "OwnableUnauthorizedAccount",
      "type": "error"
    },
    {
      "anonymous": false,
      "inputs": [
        {
          "indexed": true,
          "internalType": "address",
          "name": "account",
          "type": "address"
        },
        {
          "indexed": true,
          "internalType": "address",
          "name": "operator",
          "type": "address"
        },
        {
          "indexed": false,
          "internalType": "bool",
          "name": "approved",
          "type": "bool"
        }
      ],
      "name": "ApprovalForAll",
      "type": "event"
    },
    {
      "anonymous": false,
      "inputs": [
        {
          "indexed": true,
          "internalType": "address",
          "name": "previousOwner",
          "type": "address"
        },
        {
          "indexed": true,
          "internalType": "address",
          "name": "newOwner",
          "type": "address"
        }
      ],
      "name": "OwnershipTransferred",
      "type": "event"
    },
    {
      "anonymous": false,
      "inputs": [
        {
          "indexed": true,
          "internalType": "address",
          "name": "operator",
          "type": "address"
        },
        {
          "indexed": true,
          "internalType": "address",
          "name": "from",
          "type": "address"
        },
        {
          "indexed": true,
          "internalType": "address",
          "name": "to",
          "type": "address"
        },
        {
          "indexed": false,
          "internalType": "uint256[]",
          "name": "ids",
          "type": "uint256[]"
        },
        {
          "indexed": false,
          "internalType": "uint256[]",
          "name": "values",
          "type": "uint256[]"
        }
      ],
      "name": "TransferBatch",
      "type": "event"
    },
    {
      "anonymous": false,
      "inputs": [
        {
          "indexed": true,
          "internalType": "address",
          "name": "operator",
          "type": "address"
        },
        {
          "indexed": true,
          "internalType": "address",
          "name": "from",
          "type": "address"
        },
        {
          "indexed": true,
          "internalType": "address",
          "name": "to",
          "type": "address"
        },
        {
          "indexed": false,
          "internalType": "uint256",
          "name": "id",
          "type": "uint256"
        },
        {
          "indexed": false,
          "internalType": "uint256",
          "name": "value",
          "type": "uint256"
        }
      ],
      "name": "TransferSingle",
      "type": "event"
    },
    {
      "anonymous": false,
      "inputs": [
        {
          "indexed": false,
          "internalType": "string",
          "name": "value",
          "type": "string"
        },
        {
          "indexed": true,
          "internalType": "uint256",
          "name": "id",
          "type": "uint256"
        }
      ],
      "name": "URI",
      "type": "event"
    },
    {
      "inputs": [
        {
          "internalType": "address",
          "name": "account",
          "type": "address"
        },
        {
          "internalType": "uint256",
          "name": "id",
          "type": "uint256"
        }
      ],
      "name": "balanceOf",
      "outputs": [
        {
          "internalType": "uint256",
          "name": "",
          "type": "uint256"
        }
      ],
      "stateMutability": "view",
      "type": "function"
    },
    {
      "inputs": [
        {
          "internalType": "address[]",
          "name": "accounts",
          "type": "address[]"
        },
        {
          "internalType": "uint256[]",
          "name": "ids",
          "type": "uint256[]"
        }
      ],
      "name": "balanceOfBatch",
      "outputs": [
        {
          "internalType": "uint256[]",
          "name": "",
          "type": "uint256[]"
        }
      ],
      "stateMutability": "view",
      "type": "function"
    },
    {
      "inputs": [
        {
          "internalType": "address",
          "name": "account",
          "type": "address"
        },
        {
          "internalType": "address",
          "name": "operator",
          "type": "address"
        }
      ],
      "name": "isApprovedForAll",
      "outputs": [
        {
          "internalType": "bool",
          "name": "",
          "type": "bool"
        }
      ],
      "stateMutability": "view",
      "type": "function"
    },
    {
      "inputs": [],
      "name": "owner",
      "outputs": [
        {
          "internalType": "address",
          "name": "",
          "type": "address"
        }
      ],
      "stateMutability": "view",
      "type": "function"
    },
    {
      "inputs": [],
      "name": "renounceOwnership",
      "outputs": [],
      "stateMutability": "nonpayable",
      "type": "function"
    },
    {
      "inputs": [
        {
          "internalType": "address",
          "name": "from",
          "type": "address"
        },
        {
          "internalType": "address",
          "name": "to",
          "type": "address"
        },
        {
          "internalType": "uint256[]",
          "name": "ids",
          "type": "uint256[]"
        },
        {
          "internalType": "uint256[]",
          "name": "values",
          "type": "uint256[]"
        },
        {
          "internalType": "bytes",
          "name": "data",
          "type": "bytes"
        }
      ],
      "name": "safeBatchTransferFrom",
      "outputs": [],
      "stateMutability": "nonpayable",
      "type": "function"
    },
    {
      "inputs": [
        {
          "internalType": "address",
          "name": "from",
          "type": "address"
        },
        {
          "internalType": "address",
          "name": "to",
          "type": "address"
        },
        {
          "internalType": "uint256",
          "name": "id",
          "type": "uint256"
        },
        {
          "internalType": "uint256",
          "name": "value",
          "type": "uint256"
        },
        {
          "internalType": "bytes",
          "name": "data",
          "type": "bytes"
        }
      ],
      "name": "safeTransferFrom",
      "outputs": [],
      "stateMutability": "nonpayable",
      "type": "function"
    },
    {
      "inputs": [
        {
          "internalType": "address",
          "name": "operator",
          "type": "address"
        },
        {
          "internalType": "bool",
          "name": "approved",
          "type": "bool"
        }
      ],
      "name": "setApprovalForAll",
      "outputs": [],
      "stateMutability": "nonpayable",
      "type": "function"
    },
    {
      "inputs": [
        {
          "internalType": "bytes4",
          "name": "interfaceId",
          "type": "bytes4"
        }
      ],
      "name": "supportsInterface",
      "outputs": [
        {
          "internalType": "bool",
          "name": "",
          "type": "bool"
        }
      ],
      "stateMutability": "view",
      "type": "function"
    },
    {
      "inputs": [
        {
          "internalType": "address",
          "name": "newOwner",
          "type": "address"
        }
      ],
      "name": "transferOwnership",
      "outputs": [],
      "stateMutability": "nonpayable",
      "type": "function"
    },
    {
      "inputs": [
        {
          "internalType": "uint256",
          "name": "",
          "type": "uint256"
        }
      ],
      "name": "uri",
      "outputs": [
        {
          "internalType": "string",
          "name": "",
          "type": "string"
        }
      ],
      "stateMutability": "view",
      "type": "function"
    },
    {
      "inputs": [
        {
          "internalType": "address",
          "name": "account",
          "type": "address"
        },
        {
          "internalType": "uint256",
          "name": "id",
          "type": "uint256"
        },
        {
          "internalType": "uint256",
          "name": "amount",
          "type": "uint256"
        },
        {
          "internalType": "bytes",
          "name": "data",
          "type": "bytes"
        }
      ],
      "name": "mint",
      "outputs": [],
      "stateMutability": "nonpayable",
      "type": "function"
    },
    {
      "inputs": [
        {
          "internalType": "address",
          "name": "account",
          "type": "address"
        },
        {
          "internalType": "uint256",
          "name": "id",
          "type": "uint256"
        },
        {
          "internalType": "uint256",
          "name": "amount",
          "type": "uint256"
        }
      ],
      "name": "burn",
      "outputs": [],
      "stateMutability": "nonpayable",
      "type": "function"
    }
  ],
  "bytecode": "0x608060405234801562000010575f80fd5b50336040518060800160405280605f81526020016200365f605f91396200003d81620000ec60201b60201c565b505f73ffffffffffffffffffffffffffffffffffffffff168173ffffffffffffffffffffffffffffffffffffffff1603620000b1575f6040517f1e4fbdf7000000000000000000000000000000000000000000000000000000008152600401620000a8919062000b02565b60405180910390fd5b620000c2816200010160201b60201c565b50620000e6335f600a60405180602001604052805f815250620001c460201b60201c565b62001293565b8060029081620000fd919062000d81565b5050565b5f60035f9054906101000a900473ffffffffffffffffffffffffffffffffffffffff1690508160035f6101000a81548173ffffffffffffffffffffffffffffffffffffffff021916908373ffffffffffffffffffffffffffffffffffffffff1602179055508173ffffffffffffffffffffffffffffffffffffffff168173ffffffffffffffffffffffffffffffffffffffff167f8be0079c531659141344cd1fd0a4f28419497f9722a3daafe3b4186f6b6457e060405160405180910390a35050565b5f73ffffffffffffffffffffffffffffffffffffffff168473ffffffffffffffffffffffffffffffffffffffff160362000237575f6040517f57f447ce0000000000000000000000000000000000000000000000000000000081526004016200022e919062000b02565b60405180910390fd5b5f806200024b85856200026c60201b60201c565b91509150620002645f878484876200029c60201b60201c565b505050505050565b60608060405191506001825283602083015260408201905060018152826020820152604081016040529250929050565b620002b0858585856200036f60201b60201c565b5f73ffffffffffffffffffffffffffffffffffffffff168473ffffffffffffffffffffffffffffffffffffffff161462000368575f620002f56200072960201b60201c565b905060018451036200034f575f620003175f866200073060201b90919060201c565b90505f6200032f5f866200073060201b90919060201c565b9050620003478389898585896200074360201b60201c565b505062000366565b620003658187878787876200090160201b60201c565b5b505b5050505050565b8051825114620003bc57815181516040517f5b059991000000000000000000000000000000000000000000000000000000008152600401620003b392919062000e76565b60405180910390fd5b5f620003cd6200072960201b60201c565b90505f5b8351811015620005de575f620003f182866200073060201b90919060201c565b90505f6200040983866200073060201b90919060201c565b90505f73ffffffffffffffffffffffffffffffffffffffff168873ffffffffffffffffffffffffffffffffffffffff161462000530575f805f8481526020019081526020015f205f8a73ffffffffffffffffffffffffffffffffffffffff1673ffffffffffffffffffffffffffffffffffffffff1681526020019081526020015f2054905081811015620004dc57888183856040517f03dee4c5000000000000000000000000000000000000000000000000000000008152600401620004d3949392919062000ea1565b60405180910390fd5b8181035f808581526020019081526020015f205f8b73ffffffffffffffffffffffffffffffffffffffff1673ffffffffffffffffffffffffffffffffffffffff1681526020019081526020015f2081905550505b5f73ffffffffffffffffffffffffffffffffffffffff168773ffffffffffffffffffffffffffffffffffffffff1614620005c857805f808481526020019081526020015f205f8973ffffffffffffffffffffffffffffffffffffffff1673ffffffffffffffffffffffffffffffffffffffff1681526020019081526020015f205f828254620005c0919062000f19565b925050819055505b505080620005d69062000f53565b9050620003d1565b506001835103620006a1575f620005ff5f856200073060201b90919060201c565b90505f620006175f856200073060201b90919060201c565b90508573ffffffffffffffffffffffffffffffffffffffff168773ffffffffffffffffffffffffffffffffffffffff168473ffffffffffffffffffffffffffffffffffffffff167fc3d58168c5ae7397731d063d5bbf3d657854427343f4c083240f7aacaa2d0f6285856040516200069192919062000e76565b60405180910390a4505062000722565b8373ffffffffffffffffffffffffffffffffffffffff168573ffffffffffffffffffffffffffffffffffffffff168273ffffffffffffffffffffffffffffffffffffffff167f4a39dc06d4c0dbc64b70af90fd698a233a518aa5d07e595d983b8c0526c8f7fb86866040516200071992919062001066565b60405180910390a45b5050505050565b5f33905090565b5f60208202602084010151905092915050565b5f8473ffffffffffffffffffffffffffffffffffffffff163b1115620008f9578373ffffffffffffffffffffffffffffffffffffffff1663f23a6e6187878686866040518663ffffffff1660e01b8152600401620007a695949392919062001133565b6020604051808303815f875af1925050508015620007e457506040513d601f19601f82011682018060405250810190620007e19190620011f3565b60015b6200086b573d805f811462000815576040519150601f19603f3d011682016040523d82523d5f602084013e6200081a565b606091505b505f8151036200086357846040517f57f447ce0000000000000000000000000000000000000000000000000000000081526004016200085a919062000b02565b60405180910390fd5b805181602001fd5b63f23a6e6160e01b7bffffffffffffffffffffffffffffffffffffffffffffffffffffffff1916817bffffffffffffffffffffffffffffffffffffffffffffffffffffffff191614620008f757846040517f57f447ce000000000000000000000000000000000000000000000000000000008152600401620008ee919062000b02565b60405180910390fd5b505b505050505050565b5f8473ffffffffffffffffffffffffffffffffffffffff163b111562000ab7578373ffffffffffffffffffffffffffffffffffffffff1663bc197c8187878686866040518663ffffffff1660e01b81526004016200096495949392919062001223565b6020604051808303815f875af1925050508015620009a257506040513d601f19601f820116820180604052508101906200099f9190620011f3565b60015b62000a29573d805f8114620009d3576040519150601f19603f3d011682016040523d82523d5f602084013e620009d8565b606091505b505f81510362000a2157846040517f57f447ce00000000000000000000000000000000000000000000000000000000815260040162000a18919062000b02565b60405180910390fd5b805181602001fd5b63bc197c8160e01b7bffffffffffffffffffffffffffffffffffffffffffffffffffffffff1916817bffffffffffffffffffffffffffffffffffffffffffffffffffffffff19161462000ab557846040517f57f447ce00000000000000000000000000000000000000000000000000000000815260040162000aac919062000b02565b60405180910390fd5b505b505050505050565b5f73ffffffffffffffffffffffffffffffffffffffff82169050919050565b5f62000aea8262000abf565b9050919050565b62000afc8162000ade565b82525050565b5f60208201905062000b175f83018462000af1565b92915050565b5f81519050919050565b7f4e487b71000000000000000000000000000000000000000000000000000000005f52604160045260245ffd5b7f4e487b71000000000000000000000000000000000000000000000000000000005f52602260045260245ffd5b5f600282049050600182168062000b9957607f821691505b60208210810362000baf5762000bae62000b54565b5b50919050565b5f819050815f5260205f209050919050565b5f6020601f8301049050919050565b5f82821b905092915050565b5f6008830262000c137fffffffffffffffffffffffffffffffffffffffffffffffffffffffffffffffff8262000bd6565b62000c1f868362000bd6565b95508019841693508086168417925050509392505050565b5f819050919050565b5f819050919050565b5f62000c6962000c6362000c5d8462000c37565b62000c40565b62000c37565b9050919050565b5f819050919050565b62000c848362000c49565b62000c9c62000c938262000c70565b84845462000be2565b825550505050565b5f90565b62000cb262000ca4565b62000cbf81848462000c79565b505050565b5b8181101562000ce65762000cda5f8262000ca8565b60018101905062000cc5565b5050565b601f82111562000d355762000cff8162000bb5565b62000d0a8462000bc7565b8101602085101562000d1a578190505b62000d3262000d298562000bc7565b83018262000cc4565b50505b505050565b5f82821c905092915050565b5f62000d575f198460080262000d3a565b1980831691505092915050565b5f62000d71838362000d46565b9150826002028217905092915050565b62000d8c8262000b1d565b67ffffffffffffffff81111562000da85762000da762000b27565b5b62000db4825462000b81565b62000dc182828562000cea565b5f60209050601f83116001811462000df7575f841562000de2578287015190505b62000dee858262000d64565b86555062000e5d565b601f19841662000e078662000bb5565b5f5b8281101562000e305784890151825560018201915060208501945060208101905062000e09565b8683101562000e50578489015162000e4c601f89168262000d46565b8355505b6001600288020188555050505b505050505050565b62000e708162000c37565b82525050565b5f60408201905062000e8b5f83018562000e65565b62000e9a602083018462000e65565b9392505050565b5f60808201905062000eb65f83018762000af1565b62000ec5602083018662000e65565b62000ed4604083018562000e65565b62000ee3606083018462000e65565b95945050505050565b7f4e487b71000000000000000000000000000000000000000000000000000000005f52601160045260245ffd5b5f62000f258262000c37565b915062000f328362000c37565b925082820190508082111562000f4d5762000f4c62000eec565b5b92915050565b5f62000f5f8262000c37565b91507fffffffffffffffffffffffffffffffffffffffffffffffffffffffffffffffff820362000f945762000f9362000eec565b5b600182019050919050565b5f81519050919050565b5f82825260208201905092915050565b5f819050602082019050919050565b62000fd38162000c37565b82525050565b5f62000fe6838362000fc8565b60208301905092915050565b5f602082019050919050565b5f6200100a8262000f9f565b62001016818562000fa9565b9350620010238362000fb9565b805f5b83811015620010595781516200103d888262000fd9565b97506200104a8362000ff2565b92505060018101905062001026565b5085935050505092915050565b5f6040820190508181035f83015262001080818562000ffe565b9050818103602083015262001096818462000ffe565b90509392505050565b5f81519050919050565b5f82825260208201905092915050565b5f5b83811015620010d8578082015181840152602081019050620010bb565b5f8484015250505050565b5f601f19601f8301169050919050565b5f620010ff826200109f565b6200110b8185620010a9565b93506200111d818560208601620010b9565b6200112881620010e3565b840191505092915050565b5f60a082019050620011485f83018862000af1565b62001157602083018762000af1565b62001166604083018662000e65565b62001175606083018562000e65565b8181036080830152620011898184620010f3565b90509695505050505050565b5f80fd5b5f7fffffffff0000000000000000000000000000000000000000000000000000000082169050919050565b620011cf8162001199565b8114620011da575f80fd5b50565b5f81519050620011ed81620011c4565b92915050565b5f602082840312156200120b576200120a62001195565b5b5f6200121a84828501620011dd565b91505092915050565b5f60a082019050620012385f83018862000af1565b62001247602083018762000af1565b81810360408301526200125b818662000ffe565b9050818103606083015262001271818562000ffe565b90508181036080830152620012878184620010f3565b90509695505050505050565b6123be80620012a15f395ff3fe608060405234801561000f575f80fd5b50600436106100cc575f3560e01c8063731133e91161008a578063e985e9c511610064578063e985e9c51461020c578063f242432a1461023c578063f2fde38b14610258578063f5298aca14610274576100cc565b8063731133e9146101b65780638da5cb5b146101d2578063a22cb465146101f0576100cc565b8062fdd58e146100d057806301ffc9a7146101005780630e89341c146101305780632eb2c2d6146101605780634e1273f41461017c578063715018a6146101ac575b5f80fd5b6100ea60048036038101906100e59190611730565b610290565b6040516100f7919061177d565b60405180910390f35b61011a600480360381019061011591906117eb565b6102e5565b6040516101279190611830565b60405180910390f35b61014a60048036038101906101459190611849565b6103c6565b60405161015791906118fe565b60405180910390f35b61017a60048036038101906101759190611b0e565b610458565b005b61019660048036038101906101919190611c99565b6104ff565b6040516101a39190611dc6565b60405180910390f35b6101b461060c565b005b6101d060048036038101906101cb9190611de6565b61061f565b005b6101da610639565b6040516101e79190611e75565b60405180910390f35b61020a60048036038101906102059190611eb8565b610661565b005b61022660048036038101906102219190611ef6565b610677565b6040516102339190611830565b60405180910390f35b61025660048036038101906102519190611f34565b610705565b005b610272600480360381019061026d9190611fc7565b6107ac565b005b61028e60048036038101906102899190611ff2565b610830565b005b5f805f8381526020019081526020015f205f8473ffffffffffffffffffffffffffffffffffffffff1673ffffffffffffffffffffffffffffffffffffffff1681526020019081526020015f2054905092915050565b5f7fd9b67a26000000000000000000000000000000000000000000000000000000007bffffffffffffffffffffffffffffffffffffffffffffffffffffffff1916827bffffffffffffffffffffffffffffffffffffffffffffffffffffffff191614806103af57507f0e89341c000000000000000000000000000000000000000000000000000000007bffffffffffffffffffffffffffffffffffffffffffffffffffffffff1916827bffffffffffffffffffffffffffffffffffffffffffffffffffffffff1916145b806103bf57506103be82610848565b5b9050919050565b6060600280546103d59061206f565b80601f01602080910402602001604051908101604052809291908181526020018280546104019061206f565b801561044c5780601f106104235761010080835404028352916020019161044c565b820191905f5260205f20905b81548152906001019060200180831161042f57829003601f168201915b50505050509050919050565b5f6104616108b1565b90508073ffffffffffffffffffffffffffffffffffffffff168673ffffffffffffffffffffffffffffffffffffffff16141580156104a657506104a48682610677565b155b156104ea5780866040517fe237d9220000000000000000000000000000000000000000000000000000000081526004016104e192919061209f565b60405180910390fd5b6104f786868686866108b8565b505050505050565b6060815183511461054b57815183516040517f5b0599910000000000000000000000000000000000000000000000000000000081526004016105429291906120c6565b60405180910390fd5b5f835167ffffffffffffffff81111561056757610566611922565b5b6040519080825280602002602001820160405280156105955781602001602082028036833780820191505090505b5090505f5b8451811015610601576105d16105b982876109ac90919063ffffffff16565b6105cc83876109bf90919063ffffffff16565b610290565b8282815181106105e4576105e36120ed565b5b602002602001018181525050806105fa90612147565b905061059a565b508091505092915050565b6106146109d2565b61061d5f610a59565b565b6106276109d2565b61063384848484610b1c565b50505050565b5f60035f9054906101000a900473ffffffffffffffffffffffffffffffffffffffff16905090565b61067361066c6108b1565b8383610bb1565b5050565b5f60015f8473ffffffffffffffffffffffffffffffffffffffff1673ffffffffffffffffffffffffffffffffffffffff1681526020019081526020015f205f8373ffffffffffffffffffffffffffffffffffffffff1673ffffffffffffffffffffffffffffffffffffffff1681526020019081526020015f205f9054906101000a900460ff16905092915050565b5f61070e6108b1565b90508073ffffffffffffffffffffffffffffffffffffffff168673ffffffffffffffffffffffffffffffffffffffff161415801561075357506107518682610677565b155b156107975780866040517fe237d92200000000000000000000000000000000000000000000000000000000815260040161078e92919061209f565b60405180910390fd5b6107a48686868686610d1a565b505050505050565b6107b46109d2565b5f73ffffffffffffffffffffffffffffffffffffffff168173ffffffffffffffffffffffffffffffffffffffff1603610824575f6040517f1e4fbdf700000000000000000000000000000000000000000000000000000000815260040161081b9190611e75565b60405180910390fd5b61082d81610a59565b50565b6108386109d2565b610843838383610e20565b505050565b5f7f01ffc9a7000000000000000000000000000000000000000000000000000000007bffffffffffffffffffffffffffffffffffffffffffffffffffffffff1916827bffffffffffffffffffffffffffffffffffffffffffffffffffffffff1916149050919050565b5f33905090565b5f73ffffffffffffffffffffffffffffffffffffffff168473ffffffffffffffffffffffffffffffffffffffff1603610928575f6040517f57f447ce00000000000000000000000000000000000000000000000000000000815260040161091f9190611e75565b60405180910390fd5b5f73ffffffffffffffffffffffffffffffffffffffff168573ffffffffffffffffffffffffffffffffffffffff1603610998575f6040517f01a8351400000000000000000000000000000000000000000000000000000000815260040161098f9190611e75565b60405180910390fd5b6109a58585858585610ec2565b5050505050565b5f60208202602084010151905092915050565b5f60208202602084010151905092915050565b6109da6108b1565b73ffffffffffffffffffffffffffffffffffffffff166109f8610639565b73ffffffffffffffffffffffffffffffffffffffff1614610a5757610a1b6108b1565b6040517f118cdaa7000000000000000000000000000000000000000000000000000000008152600401610a4e9190611e75565b60405180910390fd5b565b5f60035f9054906101000a900473ffffffffffffffffffffffffffffffffffffffff1690508160035f6101000a81548173ffffffffffffffffffffffffffffffffffffffff021916908373ffffffffffffffffffffffffffffffffffffffff1602179055508173ffffffffffffffffffffffffffffffffffffffff168173ffffffffffffffffffffffffffffffffffffffff167f8be0079c531659141344cd1fd0a4f28419497f9722a3daafe3b4186f6b6457e060405160405180910390a35050565b5f73ffffffffffffffffffffffffffffffffffffffff168473ffffffffffffffffffffffffffffffffffffffff1603610b8c575f6040517f57f447ce000000000000000000000000000000000000000000000000000000008152600401610b839190611e75565b60405180910390fd5b5f80610b988585610f6e565b91509150610ba95f87848487610ec2565b505050505050565b5f73ffffffffffffffffffffffffffffffffffffffff168273ffffffffffffffffffffffffffffffffffffffff1603610c21575f6040517fced3e100000000000000000000000000000000000000000000000000000000008152600401610c189190611e75565b60405180910390fd5b8060015f8573ffffffffffffffffffffffffffffffffffffffff1673ffffffffffffffffffffffffffffffffffffffff1681526020019081526020015f205f8473ffffffffffffffffffffffffffffffffffffffff1673ffffffffffffffffffffffffffffffffffffffff1681526020019081526020015f205f6101000a81548160ff0219169083151502179055508173ffffffffffffffffffffffffffffffffffffffff168373ffffffffffffffffffffffffffffffffffffffff167f17307eab39ab6107e8899845ad3d59bd9653f200f220920489ca2b5937696c3183604051610d0d9190611830565b60405180910390a3505050565b5f73ffffffffffffffffffffffffffffffffffffffff168473ffffffffffffffffffffffffffffffffffffffff1603610d8a575f6040517f57f447ce000000000000000000000000000000000000000000000000000000008152600401610d819190611e75565b60405180910390fd5b5f73ffffffffffffffffffffffffffffffffffffffff168573ffffffffffffffffffffffffffffffffffffffff1603610dfa575f6040517f01a83514000000000000000000000000000000000000000000000000000000008152600401610df19190611e75565b60405180910390fd5b5f80610e068585610f6e565b91509150610e178787848487610ec2565b50505050505050565b5f73ffffffffffffffffffffffffffffffffffffffff168373ffffffffffffffffffffffffffffffffffffffff1603610e90575f6040517f01a83514000000000000000000000000000000000000000000000000000000008152600401610e879190611e75565b60405180910390fd5b5f80610e9c8484610f6e565b91509150610ebb855f848460405180602001604052805f815250610ec2565b5050505050565b610ece85858585610f9e565b5f73ffffffffffffffffffffffffffffffffffffffff168473ffffffffffffffffffffffffffffffffffffffff1614610f67575f610f0a6108b1565b90506001845103610f56575f610f295f866109bf90919063ffffffff16565b90505f610f3f5f866109bf90919063ffffffff16565b9050610f4f838989858589611334565b5050610f65565b610f648187878787876114e3565b5b505b5050505050565b60608060405191506001825283602083015260408201905060018152826020820152604081016040529250929050565b8051825114610fe857815181516040517f5b059991000000000000000000000000000000000000000000000000000000008152600401610fdf9291906120c6565b60405180910390fd5b5f610ff16108b1565b90505f5b83518110156111f3575f61101282866109bf90919063ffffffff16565b90505f61102883866109bf90919063ffffffff16565b90505f73ffffffffffffffffffffffffffffffffffffffff168873ffffffffffffffffffffffffffffffffffffffff161461114b575f805f8481526020019081526020015f205f8a73ffffffffffffffffffffffffffffffffffffffff1673ffffffffffffffffffffffffffffffffffffffff1681526020019081526020015f20549050818110156110f757888183856040517f03dee4c50000000000000000000000000000000000000000000000000000000081526004016110ee949392919061218e565b60405180910390fd5b8181035f808581526020019081526020015f205f8b73ffffffffffffffffffffffffffffffffffffffff1673ffffffffffffffffffffffffffffffffffffffff1681526020019081526020015f2081905550505b5f73ffffffffffffffffffffffffffffffffffffffff168773ffffffffffffffffffffffffffffffffffffffff16146111e057805f808481526020019081526020015f205f8973ffffffffffffffffffffffffffffffffffffffff1673ffffffffffffffffffffffffffffffffffffffff1681526020019081526020015f205f8282546111d891906121d1565b925050819055505b5050806111ec90612147565b9050610ff5565b5060018351036112ae575f6112115f856109bf90919063ffffffff16565b90505f6112275f856109bf90919063ffffffff16565b90508573ffffffffffffffffffffffffffffffffffffffff168773ffffffffffffffffffffffffffffffffffffffff168473ffffffffffffffffffffffffffffffffffffffff167fc3d58168c5ae7397731d063d5bbf3d657854427343f4c083240f7aacaa2d0f62858560405161129f9291906120c6565b60405180910390a4505061132d565b8373ffffffffffffffffffffffffffffffffffffffff168573ffffffffffffffffffffffffffffffffffffffff168273ffffffffffffffffffffffffffffffffffffffff167f4a39dc06d4c0dbc64b70af90fd698a233a518aa5d07e595d983b8c0526c8f7fb8686604051611324929190612204565b60405180910390a45b5050505050565b5f8473ffffffffffffffffffffffffffffffffffffffff163b11156114db578373ffffffffffffffffffffffffffffffffffffffff1663f23a6e6187878686866040518663ffffffff1660e01b815260040161139495949392919061228b565b6020604051808303815f875af19250505080156113cf57506040513d601f19601f820116820180604052508101906113cc91906122f7565b60015b611450573d805f81146113fd576040519150601f19603f3d011682016040523d82523d5f602084013e611402565b606091505b505f81510361144857846040517f57f447ce00000000000000000000000000000000000000000000000000000000815260040161143f9190611e75565b60405180910390fd5b805181602001fd5b63f23a6e6160e01b7bffffffffffffffffffffffffffffffffffffffffffffffffffffffff1916817bffffffffffffffffffffffffffffffffffffffffffffffffffffffff1916146114d957846040517f57f447ce0000000000000000000000000000000000000000000000000000000081526004016114d09190611e75565b60405180910390fd5b505b505050505050565b5f8473ffffffffffffffffffffffffffffffffffffffff163b111561168a578373ffffffffffffffffffffffffffffffffffffffff1663bc197c8187878686866040518663ffffffff1660e01b8152600401611543959493929190612322565b6020604051808303815f875af192505050801561157e57506040513d601f19601f8201168201806040525081019061157b91906122f7565b60015b6115ff573d805f81146115ac576040519150601f19603f3d011682016040523d82523d5f602084013e6115b1565b606091505b505f8151036115f757846040517f57f447ce0000000000000000000000000000000000000000000000000000000081526004016115ee9190611e75565b60405180910390fd5b805181602001fd5b63bc197c8160e01b7bffffffffffffffffffffffffffffffffffffffffffffffffffffffff1916817bffffffffffffffffffffffffffffffffffffffffffffffffffffffff19161461168857846040517f57f447ce00000000000000000000000000000000000000000000000000000000815260040161167f9190611e75565b60405180910390fd5b505b505050505050565b5f604051905090565b5f80fd5b5f80fd5b5f73ffffffffffffffffffffffffffffffffffffffff82169050919050565b5f6116cc826116a3565b9050919050565b6116dc816116c2565b81146116e6575f80fd5b50565b5f813590506116f7816116d3565b92915050565b5f819050919050565b61170f816116fd565b8114611719575f80fd5b50565b5f8135905061172a81611706565b92915050565b5f80604083850312156117465761174561169b565b5b5f611753858286016116e9565b92505060206117648582860161171c565b9150509250929050565b611777816116fd565b82525050565b5f6020820190506117905f83018461176e565b92915050565b5f7fffffffff0000000000000000000000000000000000000000000000000000000082169050919050565b6117ca81611796565b81146117d4575f80fd5b50565b5f813590506117e5816117c1565b92915050565b5f60208284031215611800576117ff61169b565b5b5f61180d848285016117d7565b91505092915050565b5f8115159050919050565b61182a81611816565b82525050565b5f6020820190506118435f830184611821565b92915050565b5f6020828403121561185e5761185d61169b565b5b5f61186b8482850161171c565b91505092915050565b5f81519050919050565b5f82825260208201905092915050565b5f5b838110156118ab578082015181840152602081019050611890565b5f8484015250505050565b5f601f19601f8301169050919050565b5f6118d082611874565b6118da818561187e565b93506118ea81856020860161188e565b6118f3816118b6565b840191505092915050565b5f6020820190508181035f83015261191681846118c6565b905092915050565b5f80fd5b7f4e487b71000000000000000000000000000000000000000000000000000000005f52604160045260245ffd5b611958826118b6565b810181811067ffffffffffffffff8211171561197757611976611922565b5b80604052505050565b5f611989611692565b9050611995828261194f565b919050565b5f67ffffffffffffffff8211156119b4576119b3611922565b5b602082029050602081019050919050565b5f80fd5b5f6119db6119d68461199a565b611980565b905080838252602082019050602084028301858111156119fe576119fd6119c5565b5b835b81811015611a275780611a13888261171c565b845260208401935050602081019050611a00565b5050509392505050565b5f82601f830112611a4557611a4461191e565b5b8135611a558482602086016119c9565b91505092915050565b5f80fd5b5f67ffffffffffffffff821115611a7c57611a7b611922565b5b611a85826118b6565b9050602081019050919050565b828183375f83830152505050565b5f611ab2611aad84611a62565b611980565b905082815260208101848484011115611ace57611acd611a5e565b5b611ad9848285611a92565b509392505050565b5f82601f830112611af557611af461191e565b5b8135611b05848260208601611aa0565b91505092915050565b5f805f805f60a08688031215611b2757611b2661169b565b5b5f611b34888289016116e9565b9550506020611b45888289016116e9565b945050604086013567ffffffffffffffff811115611b6657611b6561169f565b5b611b7288828901611a31565b935050606086013567ffffffffffffffff811115611b9357611b9261169f565b5b611b9f88828901611a31565b925050608086013567ffffffffffffffff811115611bc057611bbf61169f565b5b611bcc88828901611ae1565b9150509295509295909350565b5f67ffffffffffffffff821115611bf357611bf2611922565b5b602082029050602081019050919050565b5f611c16611c1184611bd9565b611980565b90508083825260208201905060208402830185811115611c3957611c386119c5565b5b835b81811015611c625780611c4e88826116e9565b845260208401935050602081019050611c3b565b5050509392505050565b5f82601f830112611c8057611c7f61191e565b5b8135611c90848260208601611c04565b91505092915050565b5f8060408385031215611caf57611cae61169b565b5b5f83013567ffffffffffffffff811115611ccc57611ccb61169f565b5b611cd885828601611c6c565b925050602083013567ffffffffffffffff811115611cf957611cf861169f565b5b611d0585828601611a31565b9150509250929050565b5f81519050919050565b5f82825260208201905092915050565b5f819050602082019050919050565b611d41816116fd565b82525050565b5f611d528383611d38565b60208301905092915050565b5f602082019050919050565b5f611d7482611d0f565b611d7e8185611d19565b9350611d8983611d29565b805f5b83811015611db9578151611da08882611d47565b9750611dab83611d5e565b925050600181019050611d8c565b5085935050505092915050565b5f6020820190508181035f830152611dde8184611d6a565b905092915050565b5f805f8060808587031215611dfe57611dfd61169b565b5b5f611e0b878288016116e9565b9450506020611e1c8782880161171c565b9350506040611e2d8782880161171c565b925050606085013567ffffffffffffffff811115611e4e57611e4d61169f565b5b611e5a87828801611ae1565b91505092959194509250565b611e6f816116c2565b82525050565b5f602082019050611e885f830184611e66565b92915050565b611e9781611816565b8114611ea1575f80fd5b50565b5f81359050611eb281611e8e565b92915050565b5f8060408385031215611ece57611ecd61169b565b5b5f611edb858286016116e9565b9250506020611eec85828601611ea4565b9150509250929050565b5f8060408385031215611f0c57611f0b61169b565b5b5f611f19858286016116e9565b9250506020611f2a858286016116e9565b9150509250929050565b5f805f805f60a08688031215611f4d57611f4c61169b565b5b5f611f5a888289016116e9565b9550506020611f6b888289016116e9565b9450506040611f7c8882890161171c565b9350506060611f8d8882890161171c565b925050608086013567ffffffffffffffff811115611fae57611fad61169f565b5b611fba88828901611ae1565b9150509295509295909350565b5f60208284031215611fdc57611fdb61169b565b5b5f611fe9848285016116e9565b91505092915050565b5f805f606084860312156120095761200861169b565b5b5f612016868287016116e9565b93505060206120278682870161171c565b92505060406120388682870161171c565b9150509250925092565b7f4e487b71000000000000000000000000000000000000000000000000000000005f52602260045260245ffd5b5f600282049050600182168061208657607f821691505b60208210810361209957612098612042565b5b50919050565b5f6040820190506120b25f830185611e66565b6120bf6020830184611e66565b9392505050565b5f6040820190506120d95f83018561176e565b6120e6602083018461176e565b9392505050565b7f4e487b71000000000000000000000000000000000000000000000000000000005f52603260045260245ffd5b7f4e487b71000000000000000000000000000000000000000000000000000000005f52601160045260245ffd5b5f612151826116fd565b91507fffffffffffffffffffffffffffffffffffffffffffffffffffffffffffffffff82036121835761218261211a565b5b600182019050919050565b5f6080820190506121a15f830187611e66565b6121ae602083018661176e565b6121bb604083018561176e565b6121c8606083018461176e565b95945050505050565b5f6121db826116fd565b91506121e6836116fd565b92508282019050808211156121fe576121fd61211a565b5b92915050565b5f6040820190508181035f83015261221c8185611d6a565b905081810360208301526122308184611d6a565b90509392505050565b5f81519050919050565b5f82825260208201905092915050565b5f61225d82612239565b6122678185612243565b935061227781856020860161188e565b612280816118b6565b840191505092915050565b5f60a08201905061229e5f830188611e66565b6122ab6020830187611e66565b6122b8604083018661176e565b6122c5606083018561176e565b81810360808301526122d78184612253565b90509695505050505050565b5f815190506122f1816117c1565b92915050565b5f6020828403121561230c5761230b61169b565b5b5f612319848285016122e3565b91505092915050565b5f60a0820190506123355f830188611e66565b6123426020830187611e66565b81810360408301526123548186611d6a565b905081810360608301526123688185611d6a565b9050818103608083015261237c8184612253565b9050969550505050505056fea26469706673582212200a48112a75554eed7c4537621080eabbfc61cbba83d372435a880c2e2a15f54964736f6c6343000815003368747470733a2f2f726f73652d726561722d71756f6b6b612d3135372e6d7970696e6174612e636c6f75642f697066732f516d566f7a53704668334335566354654d414766694d7a44517765717a4b6251753265764d4b3445654657367151",
  "immutableReferences": {},
  "source": "// SPDX-License-Identifier: MIT\npragma solidity ^0.8.0;\n\nimport \"@openzeppelin/contracts/token/ERC1155/ERC1155.sol\";\nimport \"@openzeppelin/contracts/access/Ownable.sol\";\n\ncontract MyToken is ERC1155, Ownable {\n    constructor()\n        ERC1155(\n            \"https://rose-rear-quokka-157.mypinata.cloud/ipfs/QmVozSpFh3C5VcTeMAGfiMzDQweqzKbQu2evMK4EeFW6qQ\"\n        )\n        Ownable(msg.sender)  // Pass msg.sender to Ownable constructor\n    {\n        // Mint 10 tokens of type 0 to the contract owner\n        _mint(msg.sender, 0, 10, \"\");\n    }\n\n    function mint(\n        address account,\n        uint256 id,\n        uint256 amount,\n        bytes memory data\n    ) public onlyOwner {\n        _mint(account, id, amount, data);\n    }\n\n    function burn(\n        address account,\n        uint256 id,\n        uint256 amount\n    ) public onlyOwner {\n        _burn(account, id, amount);\n    }\n}\n",
  "sourcePath": "/ipfs/ERC1155/contracts/MyToken.sol",
  "compiler": {
    "name": "solc",
    "version": "0.8.21+commit.d9974bed.Emscripten.clang"
  },
  "schemaVersion": "3.4.16",
  "updatedAt": "2024-08-30T08:54:19.235Z",
  "devdoc": {
    "errors": {
      "ERC1155InsufficientBalance(address,uint256,uint256,uint256)": [
        {
          "details": "Indicates an error related to the current `balance` of a `sender`. Used in transfers.",
          "params": {
            "balance": "Current balance for the interacting account.",
            "needed": "Minimum amount required to perform a transfer.",
            "sender": "Address whose tokens are being transferred.",
            "tokenId": "Identifier number of a token."
          }
        }
      ],
      "ERC1155InvalidApprover(address)": [
        {
          "details": "Indicates a failure with the `approver` of a token to be approved. Used in approvals.",
          "params": {
            "approver": "Address initiating an approval operation."
          }
        }
      ],
      "ERC1155InvalidArrayLength(uint256,uint256)": [
        {
          "details": "Indicates an array length mismatch between ids and values in a safeBatchTransferFrom operation. Used in batch transfers.",
          "params": {
            "idsLength": "Length of the array of token identifiers",
            "valuesLength": "Length of the array of token amounts"
          }
        }
      ],
      "ERC1155InvalidOperator(address)": [
        {
          "details": "Indicates a failure with the `operator` to be approved. Used in approvals.",
          "params": {
            "operator": "Address that may be allowed to operate on tokens without being their owner."
          }
        }
      ],
      "ERC1155InvalidReceiver(address)": [
        {
          "details": "Indicates a failure with the token `receiver`. Used in transfers.",
          "params": {
            "receiver": "Address to which tokens are being transferred."
          }
        }
      ],
      "ERC1155InvalidSender(address)": [
        {
          "details": "Indicates a failure with the token `sender`. Used in transfers.",
          "params": {
            "sender": "Address whose tokens are being transferred."
          }
        }
      ],
      "ERC1155MissingApprovalForAll(address,address)": [
        {
          "details": "Indicates a failure with the `operator`s approval. Used in transfers.",
          "params": {
            "operator": "Address that may be allowed to operate on tokens without being their owner.",
            "owner": "Address of the current owner of a token."
          }
        }
      ],
      "OwnableInvalidOwner(address)": [
        {
          "details": "The owner is not a valid owner account. (eg. `address(0)`)"
        }
      ],
      "OwnableUnauthorizedAccount(address)": [
        {
          "details": "The caller account is not authorized to perform an operation."
        }
      ]
    },
    "events": {
      "ApprovalForAll(address,address,bool)": {
        "details": "Emitted when `account` grants or revokes permission to `operator` to transfer their tokens, according to `approved`."
      },
      "TransferBatch(address,address,address,uint256[],uint256[])": {
        "details": "Equivalent to multiple {TransferSingle} events, where `operator`, `from` and `to` are the same for all transfers."
      },
      "TransferSingle(address,address,address,uint256,uint256)": {
        "details": "Emitted when `value` amount of tokens of type `id` are transferred from `from` to `to` by `operator`."
      },
      "URI(string,uint256)": {
        "details": "Emitted when the URI for token type `id` changes to `value`, if it is a non-programmatic URI. If an {URI} event was emitted for `id`, the standard https://eips.ethereum.org/EIPS/eip-1155#metadata-extensions[guarantees] that `value` will equal the value returned by {IERC1155MetadataURI-uri}."
      }
    },
    "kind": "dev",
    "methods": {
      "balanceOf(address,uint256)": {
        "details": "See {IERC1155-balanceOf}."
      },
      "balanceOfBatch(address[],uint256[])": {
        "details": "See {IERC1155-balanceOfBatch}. Requirements: - `accounts` and `ids` must have the same length."
      },
      "isApprovedForAll(address,address)": {
        "details": "See {IERC1155-isApprovedForAll}."
      },
      "owner()": {
        "details": "Returns the address of the current owner."
      },
      "renounceOwnership()": {
        "details": "Leaves the contract without owner. It will not be possible to call `onlyOwner` functions. Can only be called by the current owner. NOTE: Renouncing ownership will leave the contract without an owner, thereby disabling any functionality that is only available to the owner."
      },
      "safeBatchTransferFrom(address,address,uint256[],uint256[],bytes)": {
        "details": "See {IERC1155-safeBatchTransferFrom}."
      },
      "safeTransferFrom(address,address,uint256,uint256,bytes)": {
        "details": "See {IERC1155-safeTransferFrom}."
      },
      "setApprovalForAll(address,bool)": {
        "details": "See {IERC1155-setApprovalForAll}."
      },
      "supportsInterface(bytes4)": {
        "details": "See {IERC165-supportsInterface}."
      },
      "transferOwnership(address)": {
        "details": "Transfers ownership of the contract to a new account (`newOwner`). Can only be called by the current owner."
      },
      "uri(uint256)": {
        "details": "See {IERC1155MetadataURI-uri}. This implementation returns the same URI for *all* token types. It relies on the token type ID substitution mechanism https://eips.ethereum.org/EIPS/eip-1155#metadata[defined in the EIP]. Clients calling this function must replace the `\\{id\\}` substring with the actual token type ID."
      }
    },
    "version": 1
  },
  "userdoc": {
    "kind": "user",
    "methods": {},
    "version": 1
  }
}