{
  "contractName": "GcitNFT",
  "abi": [
    {
      "inputs": [],
      "stateMutability": "nonpayable",
      "type": "constructor"
    },
    {
      "inputs": [
        {
          "internalType": "address",
          "name": "sender",
          "type": "address"
        },
        {
          "internalType": "uint256",
          "name": "tokenId",
          "type": "uint256"
        },
        {
          "internalType": "address",
          "name": "owner",
          "type": "address"
        }
      ],
      "name": "ERC721IncorrectOwner",
      "type": "error"
    },
    {
      "inputs": [
        {
          "internalType": "address",
          "name": "operator",
          "type": "address"
        },
        {
          "internalType": "uint256",
          "name": "tokenId",
          "type": "uint256"
        }
      ],
      "name": "ERC721InsufficientApproval",
      "type": "error"
    },
    {
      "inputs": [
        {
          "internalType": "address",
          "name": "approver",
          "type": "address"
        }
      ],
      "name": "ERC721InvalidApprover",
      "type": "error"
    },
    {
      "inputs": [
        {
          "internalType": "address",
          "name": "operator",
          "type": "address"
        }
      ],
      "name": "ERC721InvalidOperator",
      "type": "error"
    },
    {
      "inputs": [
        {
          "internalType": "address",
          "name": "owner",
          "type": "address"
        }
      ],
      "name": "ERC721InvalidOwner",
      "type": "error"
    },
    {
      "inputs": [
        {
          "internalType": "address",
          "name": "receiver",
          "type": "address"
        }
      ],
      "name": "ERC721InvalidReceiver",
      "type": "error"
    },
    {
      "inputs": [
        {
          "internalType": "address",
          "name": "sender",
          "type": "address"
        }
      ],
      "name": "ERC721InvalidSender",
      "type": "error"
    },
    {
      "inputs": [
        {
          "internalType": "uint256",
          "name": "tokenId",
          "type": "uint256"
        }
      ],
      "name": "ERC721NonexistentToken",
      "type": "error"
    },
    {
      "inputs": [
        {
          "internalType": "address",
          "name": "owner",
          "type": "address"
        }
      ],
      "name": "OwnableInvalidOwner",
      "type": "error"
    },
    {
      "inputs": [
        {
          "internalType": "address",
          "name": "account",
          "type": "address"
        }
      ],
      "name": "OwnableUnauthorizedAccount",
      "type": "error"
    },
    {
      "anonymous": false,
      "inputs": [
        {
          "indexed": true,
          "internalType": "address",
          "name": "owner",
          "type": "address"
        },
        {
          "indexed": true,
          "internalType": "address",
          "name": "approved",
          "type": "address"
        },
        {
          "indexed": true,
          "internalType": "uint256",
          "name": "tokenId",
          "type": "uint256"
        }
      ],
      "name": "Approval",
      "type": "event"
    },
    {
      "anonymous": false,
      "inputs": [
        {
          "indexed": true,
          "internalType": "address",
          "name": "owner",
          "type": "address"
        },
        {
          "indexed": true,
          "internalType": "address",
          "name": "operator",
          "type": "address"
        },
        {
          "indexed": false,
          "internalType": "bool",
          "name": "approved",
          "type": "bool"
        }
      ],
      "name": "ApprovalForAll",
      "type": "event"
    },
    {
      "anonymous": false,
      "inputs": [
        {
          "indexed": false,
          "internalType": "uint256",
          "name": "_fromTokenId",
          "type": "uint256"
        },
        {
          "indexed": false,
          "internalType": "uint256",
          "name": "_toTokenId",
          "type": "uint256"
        }
      ],
      "name": "BatchMetadataUpdate",
      "type": "event"
    },
    {
      "anonymous": false,
      "inputs": [
        {
          "indexed": false,
          "internalType": "uint256",
          "name": "_tokenId",
          "type": "uint256"
        }
      ],
      "name": "MetadataUpdate",
      "type": "event"
    },
    {
      "anonymous": false,
      "inputs": [
        {
          "indexed": true,
          "internalType": "address",
          "name": "previousOwner",
          "type": "address"
        },
        {
          "indexed": true,
          "internalType": "address",
          "name": "newOwner",
          "type": "address"
        }
      ],
      "name": "OwnershipTransferred",
      "type": "event"
    },
    {
      "anonymous": false,
      "inputs": [
        {
          "indexed": true,
          "internalType": "address",
          "name": "from",
          "type": "address"
        },
        {
          "indexed": true,
          "internalType": "address",
          "name": "to",
          "type": "address"
        },
        {
          "indexed": true,
          "internalType": "uint256",
          "name": "tokenId",
          "type": "uint256"
        }
      ],
      "name": "Transfer",
      "type": "event"
    },
    {
      "inputs": [
        {
          "internalType": "address",
          "name": "to",
          "type": "address"
        },
        {
          "internalType": "uint256",
          "name": "tokenId",
          "type": "uint256"
        }
      ],
      "name": "approve",
      "outputs": [],
      "stateMutability": "nonpayable",
      "type": "function"
    },
    {
      "inputs": [
        {
          "internalType": "address",
          "name": "owner",
          "type": "address"
        }
      ],
      "name": "balanceOf",
      "outputs": [
        {
          "internalType": "uint256",
          "name": "",
          "type": "uint256"
        }
      ],
      "stateMutability": "view",
      "type": "function",
      "constant": true
    },
    {
      "inputs": [
        {
          "internalType": "uint256",
          "name": "tokenId",
          "type": "uint256"
        }
      ],
      "name": "getApproved",
      "outputs": [
        {
          "internalType": "address",
          "name": "",
          "type": "address"
        }
      ],
      "stateMutability": "view",
      "type": "function",
      "constant": true
    },
    {
      "inputs": [
        {
          "internalType": "address",
          "name": "owner",
          "type": "address"
        },
        {
          "internalType": "address",
          "name": "operator",
          "type": "address"
        }
      ],
      "name": "isApprovedForAll",
      "outputs": [
        {
          "internalType": "bool",
          "name": "",
          "type": "bool"
        }
      ],
      "stateMutability": "view",
      "type": "function",
      "constant": true
    },
    {
      "inputs": [],
      "name": "name",
      "outputs": [
        {
          "internalType": "string",
          "name": "",
          "type": "string"
        }
      ],
      "stateMutability": "view",
      "type": "function",
      "constant": true
    },
    {
      "inputs": [],
      "name": "owner",
      "outputs": [
        {
          "internalType": "address",
          "name": "",
          "type": "address"
        }
      ],
      "stateMutability": "view",
      "type": "function",
      "constant": true
    },
    {
      "inputs": [
        {
          "internalType": "uint256",
          "name": "tokenId",
          "type": "uint256"
        }
      ],
      "name": "ownerOf",
      "outputs": [
        {
          "internalType": "address",
          "name": "",
          "type": "address"
        }
      ],
      "stateMutability": "view",
      "type": "function",
      "constant": true
    },
    {
      "inputs": [],
      "name": "renounceOwnership",
      "outputs": [],
      "stateMutability": "nonpayable",
      "type": "function"
    },
    {
      "inputs": [
        {
          "internalType": "address",
          "name": "from",
          "type": "address"
        },
        {
          "internalType": "address",
          "name": "to",
          "type": "address"
        },
        {
          "internalType": "uint256",
          "name": "tokenId",
          "type": "uint256"
        }
      ],
      "name": "safeTransferFrom",
      "outputs": [],
      "stateMutability": "nonpayable",
      "type": "function"
    },
    {
      "inputs": [
        {
          "internalType": "address",
          "name": "from",
          "type": "address"
        },
        {
          "internalType": "address",
          "name": "to",
          "type": "address"
        },
        {
          "internalType": "uint256",
          "name": "tokenId",
          "type": "uint256"
        },
        {
          "internalType": "bytes",
          "name": "data",
          "type": "bytes"
        }
      ],
      "name": "safeTransferFrom",
      "outputs": [],
      "stateMutability": "nonpayable",
      "type": "function"
    },
    {
      "inputs": [
        {
          "internalType": "address",
          "name": "operator",
          "type": "address"
        },
        {
          "internalType": "bool",
          "name": "approved",
          "type": "bool"
        }
      ],
      "name": "setApprovalForAll",
      "outputs": [],
      "stateMutability": "nonpayable",
      "type": "function"
    },
    {
      "inputs": [
        {
          "internalType": "bytes4",
          "name": "interfaceId",
          "type": "bytes4"
        }
      ],
      "name": "supportsInterface",
      "outputs": [
        {
          "internalType": "bool",
          "name": "",
          "type": "bool"
        }
      ],
      "stateMutability": "view",
      "type": "function",
      "constant": true
    },
    {
      "inputs": [],
      "name": "symbol",
      "outputs": [
        {
          "internalType": "string",
          "name": "",
          "type": "string"
        }
      ],
      "stateMutability": "view",
      "type": "function",
      "constant": true
    },
    {
      "inputs": [
        {
          "internalType": "uint256",
          "name": "tokenId",
          "type": "uint256"
        }
      ],
      "name": "tokenURI",
      "outputs": [
        {
          "internalType": "string",
          "name": "",
          "type": "string"
        }
      ],
      "stateMutability": "view",
      "type": "function",
      "constant": true
    },
    {
      "inputs": [
        {
          "internalType": "address",
          "name": "from",
          "type": "address"
        },
        {
          "internalType": "address",
          "name": "to",
          "type": "address"
        },
        {
          "internalType": "uint256",
          "name": "tokenId",
          "type": "uint256"
        }
      ],
      "name": "transferFrom",
      "outputs": [],
      "stateMutability": "nonpayable",
      "type": "function"
    },
    {
      "inputs": [
        {
          "internalType": "address",
          "name": "newOwner",
          "type": "address"
        }
      ],
      "name": "transferOwnership",
      "outputs": [],
      "stateMutability": "nonpayable",
      "type": "function"
    },
    {
      "inputs": [
        {
          "internalType": "address",
          "name": "recipient",
          "type": "address"
        },
        {
          "internalType": "string",
          "name": "tokenURI",
          "type": "string"
        }
      ],
      "name": "mintItem",
      "outputs": [
        {
          "internalType": "uint256",
          "name": "",
          "type": "uint256"
        }
      ],
      "stateMutability": "nonpayable",
      "type": "function"
    }
  ],
  "bytecode": "0x60806040523480156200001157600080fd5b50336040518060400160405280601381526020017f47636974204e465420436f6c6c656374696f6e000000000000000000000000008152506040518060400160405280600c81526020017f476369744e4654546f6b656e000000000000000000000000000000000000000081525081600090816200009091906200022e565b5060016200009f82826200022e565b505050600160a060020a038116620000ea576040517f1e4fbdf70000000000000000000000000000000000000000000000000000000081526000600482015260240160405180910390fd5b620000fe8164010000000062000105810204565b5062000301565b60078054600160a060020a03838116600160a060020a0319831681179093556040519116919082907f8be0079c531659141344cd1fd0a4f28419497f9722a3daafe3b4186f6b6457e090600090a35050565b7f4e487b7100000000000000000000000000000000000000000000000000000000600052604160045260246000fd5b6002810460018216806200019b57607f821691505b602082108103620001d5577f4e487b7100000000000000000000000000000000000000000000000000000000600052602260045260246000fd5b50919050565b601f82111562000229576000818152602081206020601f86010481016020861015620002045750805b6020601f860104820191505b81811015620002255782815560010162000210565b5050505b505050565b815167ffffffffffffffff8111156200024b576200024b62000157565b62000263816200025c845462000186565b84620001db565b602080601f8311600181146200029f5760008415620002825750858301515b60028086026008870290910a600019041982161786555062000225565b600085815260208120601f198616915b82811015620002d057888601518255948401946001909101908401620002af565b5085821015620002f157878501516008601f88160260020a60001904191681555b5050505050600202600101905550565b6116ac80620003116000396000f3fe608060405234801561001057600080fd5b5060043610610128576000357c01000000000000000000000000000000000000000000000000000000009004806370a08231116100bf578063a22cb4651161008e578063a22cb46514610238578063b88d4fde1461024b578063c87b56dd1461025e578063e985e9c514610271578063f2fde38b1461028457600080fd5b806370a0823114610204578063715018a6146102175780638da5cb5b1461021f57806395d89b411461023057600080fd5b8063110bcd45116100fb578063110bcd45146101aa57806323b872dd146101cb57806342842e0e146101de5780636352211e146101f157600080fd5b806301ffc9a71461012d57806306fdde0314610155578063081812fc1461016a578063095ea7b314610195575b600080fd5b61014061013b36600461111f565b610297565b60405190151581526020015b60405180910390f35b61015d6102db565b60405161014c919061118c565b61017d61017836600461119f565b61036d565b604051600160a060020a03909116815260200161014c565b6101a86101a33660046111d4565b610396565b005b6101bd6101b83660046112a3565b6103a5565b60405190815260200161014c565b6101a86101d9366004611305565b610451565b6101a86101ec366004611305565b6104f8565b61017d6101ff36600461119f565b610518565b6101bd610212366004611341565b610523565b6101a8610584565b600754600160a060020a031661017d565b61015d610598565b6101a861024636600461135c565b6105a7565b6101a8610259366004611398565b6105b2565b61015d61026c36600461119f565b6105c9565b61014061027f366004611414565b6106da565b6101a8610292366004611341565b610708565b6000600160e060020a031982167f490649060000000000000000000000000000000000000000000000000000000014806102d557506102d58261075f565b92915050565b6060600080546102ea90611447565b80601f016020809104026020016040519081016040528092919081815260200182805461031690611447565b80156103635780601f1061033857610100808354040283529160200191610363565b820191906000526020600020905b81548152906001019060200180831161034657829003601f168201915b5050505050905090565b6000610378826107fa565b50600082815260046020526040902054600160a060020a03166102d5565b6103a182823361084c565b5050565b60006103af610859565b600082511161041f576040517f08c379a000000000000000000000000000000000000000000000000000000000815260206004820152601160248201527f496e76616c696420746f6b656e2055524900000000000000000000000000000060448201526064015b60405180910390fd5b60088054600091826104308361149a565b919050559050610440848261089f565b61044a8184610920565b9392505050565b600160a060020a03821661047e5760405160e160020a633250574902815260006004820152602401610416565b600061048b838333610970565b905083600160a060020a031681600160a060020a0316146104f2576040517f64283d7b000000000000000000000000000000000000000000000000000000008152600160a060020a0380861660048301526024820184905282166044820152606401610416565b50505050565b610513838383604051806020016040528060008152506105b2565b505050565b60006102d5826107fa565b6000600160a060020a038216610568576040517f89c62b6400000000000000000000000000000000000000000000000000000000815260006004820152602401610416565b50600160a060020a031660009081526003602052604090205490565b61058c610859565b6105966000610a76565b565b6060600180546102ea90611447565b6103a1338383610ad5565b6105bd848484610451565b6104f284848484610b8d565b60606105d4826107fa565b50600082815260066020526040812080546105ee90611447565b80601f016020809104026020016040519081016040528092919081815260200182805461061a90611447565b80156106675780601f1061063c57610100808354040283529160200191610667565b820191906000526020600020905b81548152906001019060200180831161064a57829003601f168201915b50505050509050600061068560408051602081019091526000815290565b90508051600003610697575092915050565b8151156106c95780826040516020016106b19291906114da565b60405160208183030381529060405292505050919050565b6106d284610cee565b949350505050565b600160a060020a03918216600090815260056020908152604080832093909416825291909152205460ff1690565b610710610859565b600160a060020a038116610753576040517f1e4fbdf700000000000000000000000000000000000000000000000000000000815260006004820152602401610416565b61075c81610a76565b50565b6000600160e060020a031982167f80ac58cd0000000000000000000000000000000000000000000000000000000014806107c25750600160e060020a031982167f5b5e139f00000000000000000000000000000000000000000000000000000000145b806102d557507f01ffc9a700000000000000000000000000000000000000000000000000000000600160e060020a03198316146102d5565b600081815260026020526040812054600160a060020a0316806102d5576040517f7e27328900000000000000000000000000000000000000000000000000000000815260048101849052602401610416565b6105138383836001610d62565b600754600160a060020a03163314610596576040517f118cdaa7000000000000000000000000000000000000000000000000000000008152336004820152602401610416565b600160a060020a0382166108cc5760405160e160020a633250574902815260006004820152602401610416565b60006108da83836000610970565b9050600160a060020a03811615610513576040517f73c6ac6e00000000000000000000000000000000000000000000000000000000815260006004820152602401610416565b60008281526006602052604090206109388282611557565b506040518281527ff8e1a15aba9398e019f0b49df1a4fde98ee17ae345cb5f6b5e2c27f5033e8ce79060200160405180910390a15050565b600082815260026020526040812054600160a060020a039081169083161561099d5761099d818486610e8e565b600160a060020a038116156109db576109ba600085600080610d62565b600160a060020a038116600090815260036020526040902080546000190190555b600160a060020a03851615610a0a57600160a060020a0385166000908152600360205260409020805460010190555b600084815260026020526040808220805473ffffffffffffffffffffffffffffffffffffffff1916600160a060020a0389811691821790925591518793918516917fddf252ad1be2c89b69c2b068fc378daa952ba7f163c4a11628f55a4df523b3ef91a4949350505050565b60078054600160a060020a0383811673ffffffffffffffffffffffffffffffffffffffff19831681179093556040519116919082907f8be0079c531659141344cd1fd0a4f28419497f9722a3daafe3b4186f6b6457e090600090a35050565b600160a060020a038216610b20576040517f5b08ba18000000000000000000000000000000000000000000000000000000008152600160a060020a0383166004820152602401610416565b600160a060020a03838116600081815260056020908152604080832094871680845294825291829020805460ff191686151590811790915591519182527f17307eab39ab6107e8899845ad3d59bd9653f200f220920489ca2b5937696c31910160405180910390a3505050565b600160a060020a0383163b156104f2576040517f150b7a02000000000000000000000000000000000000000000000000000000008152600160a060020a0384169063150b7a0290610be890339088908790879060040161161d565b6020604051808303816000875af1925050508015610c23575060408051601f3d908101601f19168201909252610c2091810190611659565b60015b610c8f573d808015610c51576040519150601f19603f3d011682016040523d82523d6000602084013e610c56565b606091505b508051600003610c875760405160e160020a6332505749028152600160a060020a0385166004820152602401610416565b805181602001fd5b600160e060020a031981167f150b7a020000000000000000000000000000000000000000000000000000000014610ce75760405160e160020a6332505749028152600160a060020a0385166004820152602401610416565b5050505050565b6060610cf9826107fa565b506000610d1160408051602081019091526000815290565b90506000815111610d31576040518060200160405280600081525061044a565b80610d3b84610f24565b604051602001610d4c9291906114da565b6040516020818303038152906040529392505050565b8080610d765750600160a060020a03821615155b15610e51576000610d86846107fa565b9050600160a060020a03831615801590610db2575082600160a060020a031681600160a060020a031614155b8015610dc55750610dc381846106da565b155b15610e07576040517fa9fbf51f000000000000000000000000000000000000000000000000000000008152600160a060020a0384166004820152602401610416565b8115610e4f578385600160a060020a031682600160a060020a03167f8c5be1e5ebec7d5bd14f71427d1e84f3dd0314c0f7b2291e5b200ac8c7c3b92560405160405180910390a45b505b50506000908152600460205260409020805473ffffffffffffffffffffffffffffffffffffffff1916600160a060020a0392909216919091179055565b610e99838383610fc4565b61051357600160a060020a038316610ee0576040517f7e27328900000000000000000000000000000000000000000000000000000000815260048101829052602401610416565b6040517f177e802f000000000000000000000000000000000000000000000000000000008152600160a060020a038316600482015260248101829052604401610416565b60606000610f3183611027565b600101905060008167ffffffffffffffff811115610f5157610f516111fe565b6040519080825280601f01601f191660200182016040528015610f7b576020820181803683370190505b5090508181016020015b600019017f3031323334353637383961626364656600000000000000000000000000000000600a86061a8153600a8504945084610f8557509392505050565b6000600160a060020a038316158015906106d2575082600160a060020a031684600160a060020a03161480610ffe5750610ffe84846106da565b806106d2575050600090815260046020526040902054600160a060020a03908116911614919050565b6000807a184f03e93ff9f4daa797ed6e38ed64bf6a1f0100000000000000008310611070577a184f03e93ff9f4daa797ed6e38ed64bf6a1f010000000000000000830492506040015b6d04ee2d6d415b85acef8100000000831061109c576d04ee2d6d415b85acef8100000000830492506020015b662386f26fc1000083106110ba57662386f26fc10000830492506010015b6305f5e10083106110d2576305f5e100830492506008015b61271083106110e657612710830492506004015b606483106110f8576064830492506002015b600a83106102d55760010192915050565b600160e060020a03198116811461075c57600080fd5b60006020828403121561113157600080fd5b813561044a81611109565b60005b8381101561115757818101518382015260200161113f565b50506000910152565b6000815180845261117881602086016020860161113c565b601f01601f19169290920160200192915050565b60208152600061044a6020830184611160565b6000602082840312156111b157600080fd5b5035919050565b8035600160a060020a03811681146111cf57600080fd5b919050565b600080604083850312156111e757600080fd5b6111f0836111b8565b946020939093013593505050565b7f4e487b7100000000000000000000000000000000000000000000000000000000600052604160045260246000fd5b600067ffffffffffffffff80841115611248576112486111fe565b604051601f8501601f19908116603f01168101908282118183101715611270576112706111fe565b8160405280935085815286868601111561128957600080fd5b858560208301376000602087830101525050509392505050565b600080604083850312156112b657600080fd5b6112bf836111b8565b9150602083013567ffffffffffffffff8111156112db57600080fd5b8301601f810185136112ec57600080fd5b6112fb8582356020840161122d565b9150509250929050565b60008060006060848603121561131a57600080fd5b611323846111b8565b9250611331602085016111b8565b9150604084013590509250925092565b60006020828403121561135357600080fd5b61044a826111b8565b6000806040838503121561136f57600080fd5b611378836111b8565b91506020830135801515811461138d57600080fd5b809150509250929050565b600080600080608085870312156113ae57600080fd5b6113b7856111b8565b93506113c5602086016111b8565b925060408501359150606085013567ffffffffffffffff8111156113e857600080fd5b8501601f810187136113f957600080fd5b6114088782356020840161122d565b91505092959194509250565b6000806040838503121561142757600080fd5b611430836111b8565b915061143e602084016111b8565b90509250929050565b60028104600182168061145b57607f821691505b602082108103611494577f4e487b7100000000000000000000000000000000000000000000000000000000600052602260045260246000fd5b50919050565b6000600182016114d3577f4e487b7100000000000000000000000000000000000000000000000000000000600052601160045260246000fd5b5060010190565b600083516114ec81846020880161113c565b83519083019061150081836020880161113c565b01949350505050565b601f821115610513576000818152602081206020601f860104810160208610156115305750805b6020601f860104820191505b8181101561154f5782815560010161153c565b505050505050565b815167ffffffffffffffff811115611571576115716111fe565b6115858161157f8454611447565b84611509565b602080601f8311600181146115be57600084156115a25750858301515b60028086026008870290910a600019041982161786555061154f565b600085815260208120601f198616915b828110156115ed578886015182559484019460019091019084016115ce565b508582101561160d57878501516008601f88160260020a60001904191681555b5050505050600202600101905550565b6000600160a060020a0380871683528086166020840152508360408301526080606083015261164f6080830184611160565b9695505050505050565b60006020828403121561166b57600080fd5b815161044a8161110956fea2646970667358221220b5d23bd67f8bd91f7d43a4c4165288936fdf55d520ea452b60c4ff8b86e6a75164736f6c63430008140033",
  "immutableReferences": {},
  "source": "// contracts/GcitNFT.sol\n// SPDX-License-Identifier: MIT\npragma solidity ^0.8.20;\n\nimport \"@openzeppelin/contracts/token/ERC721/extensions/ERC721URIStorage.sol\";\nimport \"@openzeppelin/contracts/access/Ownable.sol\";\n\ncontract GcitNFT is ERC721URIStorage, Ownable {\n    uint256 private _nextTokenId;\n\n    constructor() ERC721(\"Gcit NFT Collection\", \"GcitNFTToken\") Ownable(msg.sender) {}\n\n    function mintItem(\n        address recipient,\n        string memory tokenURI\n    ) public onlyOwner returns (uint256) {\n        require(bytes(tokenURI).length > 0, \"Invalid token URI\");\n        uint256 tokenId = _nextTokenId++;\n        _mint(recipient, tokenId);\n        _setTokenURI(tokenId, tokenURI);\n        return tokenId;\n    }\n}\n",
  "sourcePath": "/ipfs/erc721/contracts/GcitNFT.sol",
  "compiler": {
    "name": "solc",
    "version": "0.8.20+commit.a1b79de6.Emscripten.clang"
  },
  "schemaVersion": "3.4.16",
  "updatedAt": "2024-08-26T10:57:40.262Z",
  "networkType": "ethereum",
  "devdoc": {
    "errors": {
      "ERC721IncorrectOwner(address,uint256,address)": [
        {
          "details": "Indicates an error related to the ownership over a particular token. Used in transfers.",
          "params": {
            "owner": "Address of the current owner of a token.",
            "sender": "Address whose tokens are being transferred.",
            "tokenId": "Identifier number of a token."
          }
        }
      ],
      "ERC721InsufficientApproval(address,uint256)": [
        {
          "details": "Indicates a failure with the `operator`s approval. Used in transfers.",
          "params": {
            "operator": "Address that may be allowed to operate on tokens without being their owner.",
            "tokenId": "Identifier number of a token."
          }
        }
      ],
      "ERC721InvalidApprover(address)": [
        {
          "details": "Indicates a failure with the `approver` of a token to be approved. Used in approvals.",
          "params": {
            "approver": "Address initiating an approval operation."
          }
        }
      ],
      "ERC721InvalidOperator(address)": [
        {
          "details": "Indicates a failure with the `operator` to be approved. Used in approvals.",
          "params": {
            "operator": "Address that may be allowed to operate on tokens without being their owner."
          }
        }
      ],
      "ERC721InvalidOwner(address)": [
        {
          "details": "Indicates that an address can't be an owner. For example, `address(0)` is a forbidden owner in EIP-20. Used in balance queries.",
          "params": {
            "owner": "Address of the current owner of a token."
          }
        }
      ],
      "ERC721InvalidReceiver(address)": [
        {
          "details": "Indicates a failure with the token `receiver`. Used in transfers.",
          "params": {
            "receiver": "Address to which tokens are being transferred."
          }
        }
      ],
      "ERC721InvalidSender(address)": [
        {
          "details": "Indicates a failure with the token `sender`. Used in transfers.",
          "params": {
            "sender": "Address whose tokens are being transferred."
          }
        }
      ],
      "ERC721NonexistentToken(uint256)": [
        {
          "details": "Indicates a `tokenId` whose `owner` is the zero address.",
          "params": {
            "tokenId": "Identifier number of a token."
          }
        }
      ],
      "OwnableInvalidOwner(address)": [
        {
          "details": "The owner is not a valid owner account. (eg. `address(0)`)"
        }
      ],
      "OwnableUnauthorizedAccount(address)": [
        {
          "details": "The caller account is not authorized to perform an operation."
        }
      ]
    },
    "events": {
      "Approval(address,address,uint256)": {
        "details": "Emitted when `owner` enables `approved` to manage the `tokenId` token."
      },
      "ApprovalForAll(address,address,bool)": {
        "details": "Emitted when `owner` enables or disables (`approved`) `operator` to manage all of its assets."
      },
      "BatchMetadataUpdate(uint256,uint256)": {
        "details": "This event emits when the metadata of a range of tokens is changed. So that the third-party platforms such as NFT market could timely update the images and related attributes of the NFTs."
      },
      "MetadataUpdate(uint256)": {
        "details": "This event emits when the metadata of a token is changed. So that the third-party platforms such as NFT market could timely update the images and related attributes of the NFT."
      },
      "Transfer(address,address,uint256)": {
        "details": "Emitted when `tokenId` token is transferred from `from` to `to`."
      }
    },
    "kind": "dev",
    "methods": {
      "approve(address,uint256)": {
        "details": "See {IERC721-approve}."
      },
      "balanceOf(address)": {
        "details": "See {IERC721-balanceOf}."
      },
      "getApproved(uint256)": {
        "details": "See {IERC721-getApproved}."
      },
      "isApprovedForAll(address,address)": {
        "details": "See {IERC721-isApprovedForAll}."
      },
      "name()": {
        "details": "See {IERC721Metadata-name}."
      },
      "owner()": {
        "details": "Returns the address of the current owner."
      },
      "ownerOf(uint256)": {
        "details": "See {IERC721-ownerOf}."
      },
      "renounceOwnership()": {
        "details": "Leaves the contract without owner. It will not be possible to call `onlyOwner` functions. Can only be called by the current owner. NOTE: Renouncing ownership will leave the contract without an owner, thereby disabling any functionality that is only available to the owner."
      },
      "safeTransferFrom(address,address,uint256)": {
        "details": "See {IERC721-safeTransferFrom}."
      },
      "safeTransferFrom(address,address,uint256,bytes)": {
        "details": "See {IERC721-safeTransferFrom}."
      },
      "setApprovalForAll(address,bool)": {
        "details": "See {IERC721-setApprovalForAll}."
      },
      "supportsInterface(bytes4)": {
        "details": "See {IERC165-supportsInterface}"
      },
      "symbol()": {
        "details": "See {IERC721Metadata-symbol}."
      },
      "tokenURI(uint256)": {
        "details": "See {IERC721Metadata-tokenURI}."
      },
      "transferFrom(address,address,uint256)": {
        "details": "See {IERC721-transferFrom}."
      },
      "transferOwnership(address)": {
        "details": "Transfers ownership of the contract to a new account (`newOwner`). Can only be called by the current owner."
      }
    },
    "version": 1
  },
  "userdoc": {
    "kind": "user",
    "methods": {},
    "version": 1
  }
}